:020000040800F2
:10000000F87D052095030008BD2400084320000862
:1000100051240008B5080008F12E00080000000077
:10002000000000000000000000000000D9020008ED
:100030006D0A0008000000002D0300085928000880
:10004000AF030008AF030008AF030008AF030008C8
:10005000AF030008AF030008AF030008AF030008B8
:10006000AF030008AF030008AF030008AF030008A8
:10007000AF030008AF030008AF030008AF03000898
:10008000AF030008AF030008AF030008AF03000888
:10009000AF030008AF030008AF030008AF03000878
:1000A000AF030008AF030008AF030008AF03000868
:1000B000AF030008AF030008AF030008AF03000858
:1000C000AF030008AF030008AF030008AF03000848
:1000D000AF030008AD2E0008AF030008AF0300080F
:1000E000AF030008AF030008AF030008AF03000828
:1000F000AF030008AF030008AF030008AF03000818
:10010000AF030008AF030008AF030008AF03000807
:10011000AF030008AF030008AF030008AF030008F7
:10012000AF030008AF030008AF030008AF030008E7
:10013000AF030008BD0A0008AF030008AF030008C2
:10014000AF030008AF030008AF030008AF030008C7
:10015000AF030008AF030008AF030008AF030008B7
:10016000AF030008AF030008AF030008AF030008A7
:10017000AF030008AF030008AF0300080000000051
:10018000AF030008AF030008AF030008AF03000887
:10019000AF030008AF030008AF030008AF03000877
:1001A000AF030008AF030008AF030008AF03000867
:1001B000AF030008AF030008AF030008AF03000857
:1001C000AF030008AF03000800000000AF03000801
:1001D000AF030008AF030008AF030008AF03000837
:1001E000AF030008AF030008AF030008AF03000827
:1001F000AF030008AF03000800F002F800F054F865
:100200000AA090E8000C82448344AAF10107DA4571
:1002100001D100F049F8AFF2090EBAE80F0013F06F
:10022000010F18BFFB1A43F001031847C0F200008A
:10023000E0F200000A4410F8014B14F00F0508BF6B
:1002400010F8015B240908BF10F8014B6D1E05D0A2
:1002500010F8013B6D1E01F8013BF9D1641E03D07B
:10026000641E01F8015BFBD19142E4D370470000AA
:100270000023002400250026103A28BF78C1FBD8AF
:10028000520728BF30C148BF0B607047642900F097
:100290000D81732900F09082002070471FB50FF088
:1002A00027F81FBD10B510BD00F0D2FA1146FFF7B8
:1002B000F5FF06F061F800F0F0FA03B4FFF7F2FF83
:1002C00003BC02F016FE000030BF72B6704762B683
:1002D000704780F3088870472B4B19680868B0E8AE
:1002E000F04F80F30988BFF36F8F4FF0000080F369
:1002F000118870470000000006480068006880F31D
:10030000088862B661B6BFF34F8FBFF36F8F00DF0F
:1003100000BF00BF08ED00E0DFF80C00016841F409
:1003200070010160704700BF88ED00E0EFF30980C5
:10033000BFF36F8F144B1A681EF0100F08BF20ED2B
:10034000108A20E9F04F106008B44FF0200072B618
:1003500080F31188BFF34F8FBFF36F8F62B60EF03B
:1003600001FA4FF0000080F3118808BC1968086892
:10037000B0E8F04F1EF0100F08BFB0EC108A80F309
:100380000988BFF36F8F7047AC000220EFF3058040
:10039000704700000948804709480047FEE7FEE72C
:1003A000FEE7FEE7FEE7FEE7FEE7FEE7FEE7FEE725
:1003B00004480549054A064B7047000071280008AB
:1003C000F9010008F8770520F87D0520F879052067
:1003D000F8790520704700000FB4044910B503AA4E
:1003E000029800F0EDF910BC5DF814FB8C000220BF
:1003F0002DE9F0410E460446002020622046E168C7
:10040000884730B3252805D0D4E901219047206AD8
:10041000401CF2E7E168204600278847050018D015
:10042000A5F14100192802D820354FF40067324663
:10043000294620462760FFF729FF40B1012804D054
:10044000F61D26F007060836D8E7361DD6E72846FB
:10045000DAE7206ABDE8F08170B50C460546012A4E
:1004600005D02878800600D5EA69002302E0012340
:1004700005E05B1C934202D2E05C0028F9D1A86938
:10048000E618C01AA861286A184428622846AFF303
:10049000008004E0D5E9012114F8010B9047B44233
:1004A000F8D32846AFF3008070BD00002DE9F0417D
:1004B0000646002410687529314616A510D0AFF302
:1004C0000080002802DA404213A507E031688A075D
:1004D00001D512A502E0490704D511A5012401E0C8
:1004E000AFF3008000210A2206F1240709E0B0FBE7
:1004F000F2FCB0FBF2F302FB1C00303078541846DB
:10050000491C0028F3D123462A463046BDE8F04175
:1005100000F0CEB8000000002D0000002B0000000D
:100520002000000040EA010310B59B070FD1042A08
:100530000DD310C808C9121F9C42F8D020BA19BAAE
:10054000884201D9012010BD4FF0FF3010BD1AB113
:10055000D30703D0521C07E0002010BD10F8013B68
:1005600011F8014B1B1B07D110F8013B11F8014B8F
:100570001B1B01D1921EF1D1184610BD032A40F277
:10058000308010F0030C00F0158011F8013BBCF135
:10059000020F624498BF11F801CB00F8013B38BF4D
:1005A00011F8013BA2F1040298BF00F801CB38BF5B
:1005B00000F8013B11F0030300F01481083AC0F089
:1005C000088051F8043B083A51F804CBA0E8081021
:1005D000F5E7121D5CBF51F8043B40F8043BAFF354
:1005E0000080D20724BF11F8013B11F801CB48BFAE
:1005F00011F8012B24BF00F8013B00F801CB48BFE4
:1006000000F8012B704702F0FF0343EA032242EA9D
:10061000024200F002B84FF000020429C0F012803C
:1006200010F0030C00F01B80CCF1040CBCF1020FA5
:1006300018BF00F8012BA8BF20F8022BA1EB0C017A
:1006400000F00DB85FEAC17C24BF00F8012B00F870
:10065000012B48BF00F8012B70474FF0000200B596
:10066000134694469646203922BFA0E80C50A0E8D5
:100670000C50B1F12001BFF4F7AF090728BFA0E883
:100680000C5048BF0CC05DF804EB890028BF40F84F
:10069000042B08BF704748BF20F8022B11F0804F91
:1006A00018BF00F8012B70477047704770477047BC
:1006B0002DE9F0470D4699469246044600F124087C
:1006C0000168880604D5E06921F01001216000E08E
:1006D0000120A84201DD471B00E00027A1697A192B
:1006E00002EB0900081AA0612078C00602D4204657
:1006F000AFF30080002608E0D4E901211AF80600D3
:100700009047206A401C761C20624E45F4DB20781E
:10071000C0060AD52046AFF3008006E0D4E90121E7
:1007200030209047206A401C2062381EA7F1010744
:10073000F4DC07E0D4E9012118F805009047206AAD
:10074000401C2062281EA5F10105F3DC2046AFF312
:1007500000802078000602D50220BDE8F087012045
:10076000FBE7000001694A1C02610878704700B588
:100770008FB0CDE901310021059105497944CDE9DA
:10078000031011466846FFF733FE0FB000BD0000AE
:10079000E5FFFFFF10B5436913B1AFF3008001E03F
:1007A000FFF75AFE012010BD127800F124010A70F3
:1007B00000224A700122EDE711684FF0FF32E9E7AD
:1007C000074B70B50D467B44FFF7D1FF0446284622
:1007D00000F03AF810B14FF0FF3070BD204670BD08
:1007E000E344000010B5203AC0F00B80B1E8185087
:1007F000203AA0E81850B1E81850A0E81850BFF40B
:10080000F5AF5FEA027C24BFB1E81850A0E81850A9
:1008100044BF18C918C0BDE810405FEA827C24BFFD
:1008200051F8043B40F8043B08BF7047D20728BF8B
:1008300031F8023B48BF11F8012B28BF20F8023BDA
:1008400048BF00F8012B7047007B00F08000704724
:10085000754600F02BF8AE4605006946534620F079
:100860000700854618B020B5FFF7A2FDBDE820407F
:100870004FF000064FF000074FF000084FF0000B5C
:1008800021F00701AC46ACE8C009ACE8C009ACE80F
:10089000C009ACE8C0098D46704710B50446AFF3F7
:1008A00000802046BDE81040FFF707BD00487047B4
:1008B00098770520FEE70000F0B5BFF34F8FBFF338
:1008C0006F8F184900200860174C216841F40031EF
:1008D0002160BFF34F8FBFF36F8F134970310860F2
:1008E000BFF34F8F081F006843F6FF750D4E10369B
:1008F000C0F34E31C0F3C90305EA4112184642EA7B
:1009000080773760401EFAD2491EF5D2BFF34F8F71
:10091000206840F480302060BFF34F8FBFF36F8FAB
:10092000F0BD000050EF00E014ED00E0074D4FF483
:100930007A76074C287840F080002870207840F0C4
:100940008000207030460DF08FFDF3E7200002207C
:100950002400022008B5DFF89CA00025DFF898806D
:100960004FF4FA679AF8000000283FD0DFF88C9027
:10097000002637E0224C0023224A111D54F826009D
:1009800006F082FD54F82600694606F01DFF40BBC4
:100990000DF016FC18483946FFF73DFE0098046834
:1009A0000FE06289C5F5FA618A4200D90A4661689A
:1009B00008EB0500FFF7E2FD60890544BD4202D85F
:1009C0002468002CEDD10DF031FC002531460EA03D
:1009D000FFF702FD084912A0FFF7FEFC009806F0A1
:1009E0008FF9761CB9F800008642C3DB64200DF055
:1009F0003BFDB7E710000220FC0B02201200022092
:100A0000F801022040000220BDD3B5BDCAFDBEDD05
:100A1000C0B4D7D4436C69656E745B25645D0A000D
:100A200025730D0A000000001CB50DF0C9FB074935
:100A3000042000238201CDE900010B4804A10EF03F
:100A400011FAC4B20DF0F2FB20461CBD4800022092
:100A5000446174615472616E736665724D616E615A
:100A600067655461736B000055090008704738B51D
:100A70000446006800F58050816941F4801181616D
:100A8000206800F5805080690090012000F00EF988
:100A90002068009900F58050816138BD026800210E
:100AA000002A08DB0268120405D40268D20502D5C8
:100AB0000068C0F30D4108467047000010B5084CAF
:100AC00001E005F027FCA06AFFF7E8FF0028F8D155
:100AD0002068402100F5805041618902416110BDCC
:100AE000CC1302202DE9F041044621B14FF40060FF
:100AF000E060C000A060E0690026002861D03546B3
:100B00002068402702683A490A40D4E90213194391
:100B1000294341F4007111430160206805680120F8
:100B200000F0C4F8206805602068476020684568C8
:100B3000012000F0BBF820684560206886602068CE
:100B4000C660206881694FF64172114041F0800112
:100B5000816120688569012000F0A8F8206885611E
:100B60002068C6612068C569012000F09FF82068F0
:100B7000C561206800F5805081691E4A11401E4AF7
:100B80000A438261206800F580508569012000F0E9
:100B90008DF8206800F5805085612068174900F5C0
:100BA00080500160206800F580500568012000F049
:100BB0007DF8206800F580500560A069012803D009
:100BC00009E04FF480659BE7206800F58050C1691B
:100BD0000B4A1143C16160690A4A81881164017836
:100BE000D0F8010041EA00205064BDE8F081000027
:100BF0000F8120FF233FDEF8040020028020C10285
:100C0000400001000080024070B5A021022006F0E3
:100C100061F80A4CA0212060022006F05BF841F642
:100C2000C45560600220294606F054F82946A060A9
:100C3000022006F04FF8E060002070BD5000022056
:100C40000A4810B5006810F0FF0F0BD02021EFF319
:100C5000118072B681F31188BFF34F8FBFF36F8F8E
:100C600062B610BD0DF0ACFA002010BD04ED00E03E
:100C70000449096811F0FF0F02D080F31188704712
:100C80000DF0D4BA04ED00E090F83510022903D03D
:100C90008021416501207047052180F835100068EA
:100CA000016821F0010101600020704731B500F0BA
:100CB00067FC044600F064FC0099001B8842F9D3ED
:100CC00038BD2DE9F04390F845500024012D0DD09A
:100CD0004FF0010980F84590022580F844505F1ECE
:100CE00044F2F45C4FF00048816216E00220BDE857
:100CF000F08301EB4415C5F80080C4EBC416BC4278
:100D000006EB460602EB8606C5E901C603D205F1ED
:100D10002006EE6000E0E960641C9C42E9D30268B2
:100D200002F58052D16080F84490002180F845108F
:100D30000846DCE72DE9F04390F845400025012CFA
:100D40000BD04FF0010C80F845C0022480F84440DD
:100D50005F1EC1624FF480191BE00220BDE8F083E2
:100D600001EB4514C4F80090C5EBC51606EB46062A
:100D700002EB8606A660C6691EB9266846F44006E0
:100D80002660BD4203D204F12006E66000E0E16087
:100D90006D1C9D42E4D3026802F58052116180F817
:100DA00044C0002180F845100846D7E710B590F8F8
:100DB0004510012913D0012380F84530022180F825
:100DC0004410816A0A680024002A28DB0A68D205D8
:100DD00019D5826B521C8263012A02D002E00220E4
:100DE00010BD016341630A68C2F30D42121FC26362
:100DF000026B92680264C968816280F8443080F8AE
:100E00004540002010BD0A68920503D58363C0E900
:100E10000C1402E0826B521C8263C968816280F804
:100E2000443080F84540012010BD00002DE9FC470A
:100E30004FF000060400B146009603D094F8440039
:100E400018B107E00120BDE8FC87204684F8456022
:100E500000F0E2F86648016841F4804101600068F2
:100E600000F4804001906348016821F400010160B2
:100E70000168226A11430160206800F58050016812
:100E800041F00101016000F07BFB4FF4FA77054669
:100E900008E000F075FB401BB84203D9032084F83A
:100EA000440069E0206800F580500068C007F0D178
:100EB0002068006920F01C0500F0E2FC4E494F4A12
:100EC0000144914202D245F0080516E04C494D4AD2
:100ED0000144914202D245F00C050EE04A494B4ACA
:100EE0000144914209D34A4908444A49884202D2FE
:100EF00045F0040501E045F010052068056100217A
:100F00004FF40042204600F003FA0125C0BB40F632
:100F1000FF773846FFF7CAFE606890B300F030FBF9
:100F2000804641F2883701216A46204600F0E6F803
:100F300000F026FBA0EB0800B84217D80098400745
:100F4000F1D5002120464FF4805200F0E1F9B8B904
:100F500000F016FB80466A460121204600F0CEF8DC
:100F600000F00EFBA0EB0800B8420BD9012120468F
:100F7000FFF7B8FD84F84450032084F8456062E729
:100F800024E018E000988006E5D51F216A46204637
:100F900000F0B4F8D0B90098C10603D54FF4006151
:100FA000E16000E0E660400701D5A66018E04FF47C
:100FB0008040A06014E0E068A168C00840EA5100E9
:100FC00082B22046002100F0A3F930B10121204671
:100FD000FFF788FD84F8445034E73846FFF766FE93
:100FE00049462046FFF77EFD84F8445000202AE75A
:100FF000443802400438014000D3CEFEC0E1E40092
:1010000040F1E9FD40787D0100796CFC005A6202F4
:10101000001F0AFA80F0FA02334800B587B0016871
:1010200041F000710160016801F0007105910168F3
:1010300041F080610160016801F080610591016803
:1010400041F000610160016801F0006105910168F3
:1010500041F001010160016801F0010105910168A1
:1010600041F002010160016801F00201059101688F
:1010700041F004010160016801F00401059101687B
:1010800041F0400101600068694600F040000590B1
:1010900086200090022001900020029003200390FF
:1010A0000B200490114800F06FF94FF4006000909D
:1010B0000F48694600F068F9322000900D486946F3
:1010C00000F062F94FF4C04000900B48694600F010
:1010D0005BF9002203213D2000F0BCFA3D2000F026
:1010E000AEFA07B000BD00003038024000000240F8
:1010F0000004024000080240001802402DE9F047B9
:10110000044690F84400914682281DD0822084F83D
:101110004400206802694FF6FF7502F01C03228A22
:1011200005EAC2221A434FF4F86303EA811111431E
:1011300021F0020141F00105056100F021FA0127CB
:1011400006464FF4803810E00220BDE8F08700F03A
:1011500017FA801B404506D384F84470002084F8B9
:1011600045000320F1E720680569E807EFD1206812
:10117000406981B2C9F8001084F844700020E4E7A7
:10118000F8B5044690F84500012839D0012584F8C7
:101190004550022084F8440020680026016841F090
:1011A000080101602068006800902846FFF77EFD76
:1011B0002168009808602068016841F0040101601E
:1011C0002068006800900120FFF770FD21680098FA
:1011D00008602046FFF74BFC206800F580508169CD
:1011E00041F400518161206800F58050816941F02F
:1011F0000201816184F84450002084F84560F8BD04
:101200000220F8BDF0B590F845300022012B12D035
:10121000012780F84570022380F84430002561B131
:10122000C46A2368002B0BDA122180F8441080F87E
:1012300045500120F0BD0220F0BD80F84470F6E773
:1012400040F2F456B1420BD9B1FBF6FCB1FBF6F318
:1012500006FB1C1CBCF1000F00D05B1C012B43D112
:10126000226842F040522260C26AC1F30C01516010
:10127000C16A0A6842F000420A60C16AC968C16274
:1012800034E0D4F800C02CF0405CC4F800C032B99F
:10129000C46AD4F800C04CF0805CC4F800C0C46AD2
:1012A00066605C1EA24214D1C46AD4F800C04CF03F
:1012B000005CC4F800C0C3F10104D0F82CC0C4EB3A
:1012C000C41404EB440401EB8404C4F30C04CCF810
:1012D0000440C46AD4F800C04CF0004CC4F800C00C
:1012E000C46A521CE468C4629A42CAD3016801F518
:1012F00080514A69520705D504224A61016801F507
:1013000080514D6080F8447080F845500020F0BD59
:101310002DE9F041044690F8440042281ED04220B6
:1013200084F84400206803694FF6FF7603F01C053B
:10133000238A06EAC3232B434FF4F86505EA81119B
:10134000194341F0030591B241612068056100F045
:1013500017F9012706464FF4803810E00220BDE857
:10136000F08100F00DF9801B404506D384F84470ED
:10137000002084F845000320F1E720680569E807AC
:10138000EFD184F84470EAE72DE9F84FDFF8A09137
:1013900000224FF00F0809F1040A0AF1040B0BF1C7
:1013A000040E0B68012696403340B34271D14C685D
:1013B000022C01D0122C11D1D40800EB84073D6A15
:1013C0005407E40E08FA04FC25EA0C05D1F810C015
:1013D0000CFA04FC4CEA050CC7F820C0076854005E
:1013E00091F804C00325A5400CF0030CAF430CFAA0
:1013F00004FC4CEA070CC0F800C04F68012F05D070
:10140000022F03D0112F01D0122F11D18768D1F8EC
:101410000CC0AF430CFA04FC4CEA070CC0F808C03F
:101420004768B7430E79C6F3001696403E434660C0
:10143000C668AE438D68A5403543C5604C68E4007E
:101440006FD53C4C256845F480452560246822F022
:10145000030504F480440094374C2E19D6F808781C
:101460009407250F08FA05F4A743344CA04201D194
:1014700000242EE0324CA04201D1012429E0314C5D
:10148000A04201D1022424E02F4CA04202D1032427
:101490001FE046E02D4CA04201D1042419E02C4C61
:1014A000A04201D1052414E02A4CA04201D1062417
:1014B0000FE0294CA04201D107240AE0274CA042AA
:1014C00001D1082405E0264CA04201D1092400E006
:1014D0000A24AC403C43C6F80848D9F800404D46C1
:1014E0004E689C43F60300D51C432C60DAF800409C
:1014F00055464E689C43B60300D51C432C60DBF870
:1015000000405D464E689C43F60200D51C432C60AB
:10151000DEF8004075464E689C43B60200D51C4379
:101520002C60521C102AFFF43CAFBDE8F88F00007D
:10153000003C0140443802400030014000000240BD
:101540000004024000080240000C0240001002406B
:101550000014024000180240001C0240002002401B
:10156000002402400069084000D001207047426911
:101570004A40426170470AB1816170470904FBE744
:10158000014800687047000094000220024801688A
:10159000491C01607047000094000220074810B504
:1015A000016841F400710160032000F073F80F201E
:1015B00000F006F800F042F8002010BD003C0240A8
:1015C00010B5044607484FF47A710068B0FBF1F09B
:1015D00000F062FB00222146501E00F03BF8002084
:1015E00010BD00000C000220134A41781160111D4B
:1015F00003780A1DE3B143680B60017BC37A0907D6
:1016000041EA0361837A41EAC341437B41EA834172
:10161000837B41EA4341C37B41EA0341437A41EA88
:101620000321037A007841EA4301014311607047C6
:10163000002008601060704798ED00E070470121BD
:1016400000F01F0291404009800000F1E020C0F846
:10165000001170470E4BF0B41B68C3F30223C3F1B3
:101660000704042C00D904241D1D072D01D20023DA
:1016700000E0DB1E012606FA04F56D1E0D409D40BC
:101680009E40761E164045EA0601F0BC00F017BFEA
:101690000CED00E0064A00F0070110684FF6FF036A
:1016A000184040EA012003490843106070470000D9
:1016B0000CED00E00000FA051848F8B5016841F0AB
:1016C000805101600068164D00F08050009028683D
:1016D00040F480302860FFF753FF4FF47A760446D9
:1016E00004E0FFF74DFF001BB0420FD86868C0034D
:1016F000F7D5286840F400302860FFF741FF044622
:1017000006E0FFF73DFF001BB04201D90320F8BD02
:1017100068688003F5D50020F8BD0000403802401D
:10172000007000402DE9F047DFF8448104460E4682
:10173000D8F8000000F00F00B0420CD2D8F800102A
:1017400021F00F013143C8F80010D8F8000000F074
:101750000F00B04262D12078464F800705D5386827
:10176000A16820F0F000084338602078C00744D01A
:10177000404960680839012816D00968022816D047
:10178000890700294ADA396821F0030101433960E9
:10179000FFF7F6FE0546606841F2883101280ED059
:1017A0000228894617D024E009688903E9E78901FE
:1017B000E7E7FFF7E5FE411B494501D916E08946F9
:1017C0003868C0F381000128F3D116E0FFF7D8FE96
:1017D000411B49450AD83868C0F381000228F5D179
:1017E0000BE0FFF7CDFE411B494502D90320BDE8C0
:1017F000F087386810F00C0FF3D1D8F8001040468D
:1018000001F00F01B1420BD9016821F00F01314302
:101810000160006800F00F00B04201D00120E6E74F
:101820002078400705D53868E16820F4E050084387
:1018300038602078000706D53868216920F46040B8
:1018400040EAC100386000F051F83968F02292FA9D
:10185000A2F201F0F001B2FA82F2D140064A515CE4
:10186000C840064908600F20FFF7AAFE0020BEE727
:10187000003C024008380240FAF200080C00022046
:1018800001480068704700000C0002200848094920
:10189000006809684FF4E05292FAA2F201F4E051B4
:1018A000B2FA82F2D140044A515CC840704700004D
:1018B0000C000220083802400AF3000808480949D1
:1018C000006809684FF4604292FAA2F201F46041A4
:1018D000B2FA82F2D140044A515CC840704700001D
:1018E0000C000220083802400AF30008194830B5FD
:1018F000006810F00C01184812D0184C04290ED0C2
:1019000008290DD1134A121F1168136801F03F0115
:101910005D0247F6C07304D5B4FBF1F003E0204646
:1019200030BDB0FBF1F01168194093FAA3F3B3FA9C
:1019300083F3D940484311684FF4403292FAA2F23F
:1019400001F44031B2FA82F2D140491C4900B0FBA7
:10195000F1F030BD083802400024F40040787D01E9
:101960002DE9F84FDFF8108304460078A8F1040948
:10197000A9F10405C0074AD0D8F800104046C1F3C9
:101980008101012908D00068C0F3810002280AD132
:10199000D9F80000400206D52868800337D5606872
:1019A00000286ED033E06068B0F5803F0BD010B1F6
:1019B000B0F5A02F11D0286820F480302860286866
:1019C00020F4802002E0286840F4803028606068BD
:1019D00088B1FFF7D5FD064609E0286840F480206D
:1019E0002860F0E7FFF7CCFD801B642872D82868D8
:1019F0008003F7D50BE0FFF7C3FD064604E0FFF7D1
:101A0000BFFD801B6428F1D828688003F7D42078B4
:101A1000800746D5D8F8001040464FF0F80711F07F
:101A20000C0F08D00068C0F3810002280AD1D9F851
:101A30000000400206D42868800716D5E068012817
:101A40001FD112E0E068002828681BD040F0010098
:101A50002860FFF795FD064604E0FFF791FD801B27
:101A60000228C3D828688007F7D5286897FAA7F214
:101A70002169B2FA82F220F0F80091400843286010
:101A80000FE0F7E020F001002860FFF779FD06463F
:101A900004E0FFF775FD801B02281BD8286880072B
:101AA000F7D42078000725D5734F60696C3700287C
:101AB000386810D040F001003860FFF761FD06463D
:101AC00004E0FFF75DFD801B022803D8386880071B
:101AD000F7D50FE08AE020F001003860FFF750FDF5
:101AE000064604E0FFF74CFD801B02287ED83868CC
:101AF0008007F7D42078400750D55F483830016818
:101B000041F08051016000685C4F00F0805000900F
:101B1000386840F480703860FFF732FD064604E014
:101B2000FFF72EFD801B642860D83868C005F7D504
:101B3000514FA068683701280AD008B1052813D092
:101B4000386820F001003860386820F0040002E0B6
:101B5000386840F001003860A06841F2883A88B1E6
:101B6000FFF70EFD064609E0386840F004003860D3
:101B7000EEE7FFF705FD811B514573D838688007F4
:101B8000F7D50BE0FFF7FCFC064604E0FFF7F8FC96
:101B9000811B514566D838688007F7D4A06930B3F7
:101BA000D8F80010C1F38101022963D00228286807
:101BB00020F08070286003D0FFF7E2FC044654E078
:101BC000FFF7DEFC064604E0FFF7DAFC801B022884
:101BD00048D828688001F7D447F6C072D4E90701D5
:101BE00092FAA2F20843B2FA82F201E03AE03FE050
:101BF000616A4FF0FF339140A26A03EB52024FF447
:101C0000403393FAA3F3B3FA83F39A4011434FF0AE
:101C100070620843E16A92FAA2F2B2FA82F291404B
:101C20004FF0E0420843216B92FAA2F2B2FA82F23C
:101C300091400843C9F80000286840F0807028608F
:101C4000FFF79EFC044604E0FFF79AFC001B022805
:101C500008D828688001F7D50AE0FFF791FC001B3F
:101C6000022802D90320BDE8F88F28688001F4D447
:101C70000020F8E70120F6E7083802400070004035
:101C80004FF0E0210428086903D020F00400086127
:101C9000704740F00400FAE7401EB0F1807F10B5B5
:101CA00001D3012010BD4FF0E02460610F216017C7
:101CB00000F005FC0020A06107202061002010BD7D
:101CC000704790F8691090F86A0008437047000068
:101CD00070B501680446C8690A688B6810F00F0F78
:101CE0005CD040F201152B426BD0C50707D0D5055B
:101CF00005D501250D62E16E41F00101E166810724
:101D000008D5D90706D0256802212962E16E41F085
:101D10000401E166410708D5D90706D025680421EA
:101D20002962E16E41F00201E16601070CD502F083
:101D3000200103F00103194306D02368082119622A
:101D4000E16E41F00801E166E16E002932D08006C3
:101D500004D5900602D5204600F01EFFE06E000775
:101D600003D420688068400625D5204600F006FF91
:101D70002068816849061AD5816821F04001816098
:101D8000606EA0B12F490165606EFEF77DFF0028EF
:101D900010D0606E016DBDE870400847830610D515
:101DA00093060ED52046BDE8704000F0F5BE2046F3
:101DB000FFF786FF70BD2046FFF782FF0020E06638
:101DC00070BD03062ED513062CD594F86900212882
:101DD000F6D1B4F8520020B1A068B0F5805F0AD007
:101DE0000BE0086820F0800008602068016841F07E
:101DF0004001016070BD206958B1E06C411CE16494
:101E0000216800788862B4F85200401EA4F852009D
:101E100070BDE06C0088C0F308008862E06C801C34
:101E2000E064F0E74006F3D55006F1D50A68204695
:101E300022F040020A60202184F8691000F000F9C5
:101E400070BD0000692B000810B5040003D094F8A1
:101E5000690010B107E0012010BD002084F868007F
:101E6000204600F027F8242084F8690020680168E3
:101E700021F001010160204600F0CAFE0128EBD0EC
:101E8000606A10B1204600F0DDFD2068416821F451
:101E9000904141602068816821F02A0181602068BA
:101EA000016841F0010101602046BDE8104000F0EA
:101EB0002DBE00002DE9F047364904460068022691
:101EC000354D8CB04F154FF0010888424FF007098F
:101ED0002AD1286840F001002860286800F001003D
:101EE00005902D481430016841F010010160006830
:101EF0006946DFF8A8A000F01000CDE90076CDE932
:101F00000286CDE904905046FFF73EFA281569464F
:101F100000905046FFF738FA2520FFF790FB00228B
:101F200006212520FFF796FB1D49206888422ED107
:101F3000286840F008002860286800F008000A902F
:101F400015481030016841F480210160006805A93E
:101F5000144D00F480200A904FF4807081E8410114
:101F6000CDE908692846FFF70FFA05A92846059725
:101F7000FFF70AFA2068016841F02001016027207C
:101F8000FFF75DFB002207212720FFF763FB0CB062
:101F9000BDE8F087001001403038024000000240E8
:101FA00000480040000C024090F86A30202B44D1D9
:101FB000B9B1B2B190F86830012B3ED0012380F85E
:101FC00068304165A0F85820A0F85A20FF228168A7
:101FD000B1F5805F07D07F2351B1B1F1805F0CD0A4
:101FE00010E001207047016921B940F2FF1107E0BC
:101FF0000169F9B9A0F85C2004E00169D1B13F2181
:10200000A0F85C100021C166222280F86A2080F8C6
:10201000681001680A6842F480720A6001688A6880
:1020200042F001028A600068016841F0200101600D
:1020300000207047A0F85C30E4E70220704770474A
:102040007047FEE710B5124C002210212046FFF722
:1020500092FA206820F440602060206840F480609C
:102060002060002220462021FFF785FA022000F0A0
:10207000D7FF012220461021FFF77DFA022000F051
:10208000CFFF00222046BDE810401021FFF773BAB1
:10209000001C0240114810B586B0016841F0800173
:1020A0000160006869460E4C00F080000590302009
:1020B0000090012001900290022003902046FFF73B
:1020C00063F9012220462021FFF755FA012220461C
:1020D0001021FFF750FA06B010BD00003038024062
:1020E000001C024010B5124C002210212046FFF7C0
:1020F00042FA206820F440602060206840F480604C
:102100002060012220462021FFF735FA022000F04E
:1021100087FF012220461021FFF72DFA022000F050
:102120007FFF00222046BDE810401021FFF723BAB0
:10213000001C02402DE9F041174E0746002430688C
:1021400020F4406030603068306025460022304620
:102150001021FFF710FA022000F062FF0122304642
:102160001021FFF708FA60062021040E3046FFF721
:10217000F9F908B1641CE4B2012000F051FF6D1CB4
:10218000EDB2082DE2D327B1FFF75CFF2046BDE892
:10219000F081FFF7A7FFF9E7001C024070B5194E68
:1021A00005463046316821F440613160316841F4C0
:1021B0008061316000221021FFF7DDF9002428063C
:1021C00001D5012200E0002230462021FFF7D3F99B
:1021D0006806050E022000F023FF01223046102180
:1021E000FFF7C9F9022000F01BFF00223046102142
:1021F000FFF7C1F9022000F013FF641CE4B2082CC1
:10220000DDD370BD001C024010B5124C206820F4D4
:1022100040602060206840F48060206001222046F9
:102220002021FFF7A8F9012220461021FFF7A3F98A
:10223000042000F0F5FE002220462021FFF79BF944
:10224000042000F0EDFE00222046BDE810401021E1
:10225000FFF791B9001C024010B5124C206820F421
:1022600040602060206840F48060206000222046AA
:102270001021FFF780F9002220462021FFF77BF98B
:10228000042000F0CDFE012220461021FFF773F953
:10229000012220462021FFF76EF9BDE810400420FE
:1022A00000F0BEBE001C024070B5174D0024286827
:1022B00020F44060286028682860012220212846F8
:1022C000FFF759F9012000F0ABFE0122284610214A
:1022D000FFF751F9012000F0A3FE07E0641CE4B20F
:1022E000FA2C03D9FFF7B8FF012070BD2021284642
:1022F000FFF738F90028F1D1002228461021FFF716
:102300003AF9002070BD0000001C02401CB5FDF72A
:10231000DCFF0121072000F021F9642000F064FEB9
:102320000021072000F01AF9642000F05DFEFDF79F
:10233000CEFF1548012201788DF8001041788DF804
:10234000011081788DF80210C1788DF803100179A1
:102350008DF8041040798DF805000D480B49C0E94F
:10236000001291038160C910C16000210182C0F890
:1023700014D0C0E90621D1050162FEF757FD0028FF
:1023800000D001201CBD0000B001022000800240EE
:10239000CC130220104810B586B0016841F002014C
:1023A0000160006801210D4C00F00200059003203F
:1023B000CDE90001CDE9021069462046FEF7E4FFB1
:1023C000012220461146FFF7D6F8012220460221BD
:1023D000FFF7D1F806B010BD3038024000040240CB
:1023E0001221032301220807AFF300807FB5174CA9
:1023F000256825F480352560144D70352E6826F04B
:1024000001062E600190002001268DF808108DF83D
:102410000C008DF809008DF80D008DF800608DF826
:102420000A0068468DF80E608DF801208DF80B309B
:102430008DF80F60FFF7D8F805202860206840F479
:102440008030206004B0002070BD000024ED00E06A
:102450000DA0FDF7C1FF4FF47A74204600F0C4FDD3
:102460000FA0FDF7B9FF204600F0BEFDBFF34F8F70
:1024700010480168104A01F4E06111430160BFF3A4
:102480004F8F00BFFDE700004D656D204163636520
:102490007373204572726F7221210D0A00000000D3
:1024A000536F6674205265736574696E672E2E2EA5
:1024B0000D0A00000CED00E00400FA057047090762
:1024C000090E002806DA00F00F0000F1E02080F885
:1024D000141D704700F1E02080F8001470470000E0
:1024E000144810B586B0016841F00201016000682F
:1024F000694600F0020005904FF4805000900020E3
:10250000019001200290032003900B48FEF73CFF4E
:10251000FFF7C0FDFFF778FE4020FFF73FFEFFF713
:10252000C3FE0446FFF798FEFF2000F027F806B030
:10253000204610BD303802400004024010B5FFF7BD
:1025400063FE4120FFF72AFEFFF7AEFE0020FFF7F3
:10255000F1FD0446FFF780FE204610BD70B50C4625
:102560000546FFF7EBFF0122AA402CB10243D0B28F
:10257000BDE8704000F002B89043F9E710B504469A
:10258000FFF742FE4020FFF709FEFFF78DFE2046D1
:10259000FFF704FEFFF788FEFFF75EFEBDE8104080
:1025A0000A2000F021BD00001CB54FF4FA7405E0CC
:1025B00020460BF059FF28A0FDF70EFF03F072FD37
:1025C0000028F5D12AA0FDF707FF0BF0F9FD05E083
:1025D00020460BF049FF2EA0FDF7FEFE07F036FF68
:1025E0000028F5D032A003E020460BF03DFF39A0D3
:1025F000FDF7F2FE00F002FA0028F5D03EA003E05D
:1026000020460BF031FF47A0FDF7E6FEFEF70CFA7F
:102610000028F5D04EA0FDF7DFFE5A490120002327
:102620004022CDE900015D4857A10CF01BFC554943
:1026300004200023091D8022CDE900015D4858A136
:102640000CF010FC4F48001F00680BF039FFBDE88C
:102650001C400BF0EBBD00004C57495020496E69FF
:102660007469616C696E67204661696C65640A0013
:102670004C57495020496E697469616C696E6720D6
:102680005375636365737366756C6C790A0000003B
:102690005443505F436C69656E7420496E69746978
:1026A000616C696E67204661696C65640A000000B0
:1026B0005443505F436C69656E7420496E69746958
:1026C000616C696E67205375636365737366756CBF
:1026D0006C790A005443505365747665724C697383
:1026E00074656E20496E697469616C696E67204615
:1026F00061696C65640A00005443505365747665E3
:10270000724C697374656E20496E697469616C6995
:102710006E67205375636365737366756C6C790AB5
:1027200000000000446174615472616E73666572EA
:102730004D616E61676554687265616420496E69B8
:102740007469616C696E67204661696C65640A0032
:10275000446174615472616E736665724D616E613D
:10276000676554687265616420496E697469616C5B
:10277000696E67205375636365737366756C6C79F6
:102780000A00000004000220537461747573496EDE
:102790006469636174655F7461736B00B9270008D5
:1027A0004461746141637175697369746F6E5F74BC
:1027B00061736B002D090008054C4FF47A750221F6
:1027C0002046FEF7D4FE28460BF04EFEF7E7000049
:1027D0000004024030B51E4C93B0256845F080558A
:1027E0002560246804F0805412941A4C256845F43E
:1027F0004045256024680DF1240C04F440441294F3
:102800000124009424040194022406948CE80D0011
:1028100065056846CDE90751FFF7A2F800B1FEE76C
:10282000FEF74AFF00B1FEE70F20CDE90D040020BE
:102830000F904FF4A05010904FF48050119007214A
:102840000DA8FEF76FFF002800D0FEE713B030BDE3
:10285000403802400070004010B50CF02FFB0128FA
:1028600001D00CF033F8BDE81040FEF78FBE000039
:102870001048016841F4700101600F48016841F09F
:10288000010101600C4A00210832116002680B4B03
:102890001A400260031D0A4A1A60026822F480226C
:1028A000026005480C300160580602498039086012
:1028B0007047000088ED00E000380240FFFFF6FEA0
:1028C000103000240EB500221020114604F0C6FE80
:1028D0003349814641F60A2204F058FBFF2148465D
:1028E00004F05EFEDFF8BC800A272F4EA8F1200519
:1028F000C9F81C70708805EB8001484604F012FA94
:10290000718808292ED268BB0322002101200CF017
:1029100019F8728848F8220020B100231A46194697
:102920000CF046F901203070708800231E4A121DF9
:1029300055F82010CF61111D55F8200004F0A4FDBA
:102940001948B48808300168080ECDE90004C1F3C5
:102950000743C1F3072215A0C9B2FDF73DFD7088FA
:10296000401C7080002412E055F8240002A904F0F5
:102970002BFF0C3007D155F8240004F065FB17A09D
:102980002146FDF729FD029804F0BAF9641C70880D
:102990008442E9DB4FF47A700BF066FDAAE7000091
:1029A00048F300081802022010000220D6F7BBFAF4
:1029B00025642E25642E25642E2564C1ACBDD3C9A3
:1029C000CFB7FECEF1C6F72CD6F7BBFAB6CBBFDA3F
:1029D000BAC5CEAA3A25640D0A000000D6F7BBFAA4
:1029E000B6CFBFAA585858B5C4C1ACBDD3A3BA3DE1
:1029F0003D3D3D3D3D3E2564000000001CB50BF013
:102A0000DFFB0849032000234FF49672CDE9000153
:102A10000B4805A10CF026FAC4B20BF007FC2046C7
:102A20001CBD00001C0002205443505365727665A3
:102A3000724C697374656E5468726561640000005D
:102A4000C528000890F82410C90706D001684A6814
:102A5000836A22F400321A434A6090F824108907EE
:102A600006D501684A68C36A22F480321A434A6074
:102A700090F82410490706D501684A68036B22F4D0
:102A800080221A434A6090F82410090706D501688D
:102A90004A68436B22F400421A434A6090F82410BB
:102AA000C90606D501688A68836B22F480521A43EE
:102AB0008A6090F82410890606D501688A68C36B7D
:102AC00022F400521A438A6090F82410490611D566
:102AD00001684A68036C22F480121A434A60016C50
:102AE000B1F5801F06D101684A68436C22F4C00228
:102AF0001A434A6090F82410090606D501684A680E
:102B0000806C22F4002202434A607047F8B5002529
:102B10000446C566FEF734FD0746206800686FF07E
:102B20007E46000708D500223B464FF400112046A0
:102B3000009600F089F960B92068006840070AD55E
:102B400000223B464FF480012046009600F07CF9BD
:102B500008B10320F8BD202084F8690084F86A00D9
:102B6000002084F86850F8BD10B5806B0021A0F8F3
:102B70005A10A0F85210FFF7A3F810BD01680A68B8
:102B800022F490720A6001688A6822F001028A6069
:102B9000202180F86A10704710B5B0F85C2090F8DA
:102BA0006A300168222B05D0886940F008008861EE
:102BB000022010BD8368B3F5805F01D1036973B152
:102BC0004B6A416D13404A1C42650B70B0F85A10B5
:102BD000491E0904090CA0F85A1008D016E0436DEC
:102BE000496A11401980416D891C4165EEE7016811
:102BF0000A6822F490720A6001688A6822F0010271
:102C00008A60202180F86A10FFF719FA002010BDB1
:102C10002DE9F04104468368006910210022E6692D
:102C200003436069154630430343206806687A4FC2
:102C30003E401E43066020684368E66823F4405324
:102C400033434360A369206A03432068866826F4FF
:102C500030661E438660714FCE022068704BB842CA
:102C60000AD11B6813F0030352D0012B7AD0022B38
:102C700076D0032B79D177E06A4FB8420AD11B682E
:102C800013F00C036AD0042B6CD0082B68D00C2BEB
:102C90006BD169E0644FB8420AD11B6813F030036E
:102CA0005CD0102B5ED0202B5AD0302B5DD15BE056
:102CB0005E4FB8420AD11B6813F0C0034ED0402BC0
:102CC00050D0802B4CD0C02B4FD14DE0584FB84244
:102CD0000DD11B6813F4407340D0B3F5807F41D011
:102CE000B3F5007F3CD0B3F5407F3ED13CE0514F7F
:102CF000B8420FD11B6813F4406309D0B3F5806F5D
:102D000030D0B3F5006F2BD0B3F5406F2DD12BE051
:102D100001212AE0484FB8420DD11B6813F44053FB
:102D20001CD0B3F5805F1DD0B3F5005F18D0B3F5AC
:102D3000405F1AD118E0414FB84216D11B6813F416
:102D400040430BD0B3F5804F0CD0B34208D0B3F55D
:102D5000404F0AD108E005E002E0FFE7002104E06F
:102D6000022102E0042100E00821E369B34226D1F8
:102D700009291DD2DFE801F00508121C151C1C1CD6
:102D80001800FEF783FD01E0FEF798FD4100606842
:102D900001EB5001B1FBF0F082B20AE02849606813
:102DA000F6E7FEF7A3FDF1E760684FF48031EFE747
:102DB000012522F00F00C2F3420108431CE009295B
:102DC00025D2DFE801F005080B24102424241C0080
:102DD000FEF75CFD09E0FEF771FD06E06168194A47
:102DE00002EB51020EE0FEF781FD0146606801EB47
:102DF0005001B1FBF0F080B22168C86008E0616862
:102E000006EB5102B2FBF1F189B2C16000E001258D
:102E10002846BDE8F0810000F369FFEF0010014093
:102E2000903802400044004000480040004C004000
:102E3000005000400014014000780040007C004039
:102E40000048E8010024F4002DE9F0411E46174631
:102E500088460446069D1CE0681C1AD025B1FEF782
:102E60008FFB801BA84214D32068016821F4D07125
:102E700001602068816821F001018160202084F8D0
:102E8000690084F86A00002084F868000320BDE827
:102E9000F0812068C16938EA010004D00020B842FE
:102EA000DAD00020F3E70120F9E7000070B50D4DFE
:102EB00000240D48FEF70CFF02E0641CAC4204D86D
:102EC0000948FEF7FEFE2028F7D1002402E0641C2A
:102ED000AC4206D8054901220348FFF765F80028EF
:102EE000F5D170BDFFFF010020BC0420900002203E
:102EF000FEE770472DE9F04705461746143088462F
:102F0000814606F0D7FFC0B32878E96A03F0B6FF20
:102F100004004FF0FF362DD02046C4F8048006F0A0
:102F200051FE21464846277206F094FF48B3656873
:102F30000021284607F004FA0021284609F01CFC6D
:102F40000021284609F04AFE04222846002108F004
:102F500037FE0021284607F097FE0020606004F14C
:102F60001000054606F0F8FE284606F06FFF2046E2
:102F700004F0D8F93046BDE8F087FFE76FF00500B0
:102F8000F9E7EB6A1BB1002228461146984700205A
:102F9000F1E7000010B501F0EFFCBDE81040034977
:102FA000002241F2883006F0C9BF0000952F0008CA
:102FB00010B504460420FEF763FE0A4801224FF4D0
:102FC0007A7114FB01F1446002804FF0E020026945
:102FD00042F0020202614161016941F001010161B7
:102FE00010BD00008400022070B504460BF066FF9F
:102FF00001280CD0094D2888844203D3B4FBF0F09B
:103000000BF032FA2888B4FBF0F100FB11444FF4C6
:103010007A706043BDE8704000F002B8840002207E
:1030200070B54FF0E02500216C69094AAB69526820
:103030005043AA699A42FCD002D2A3EB020302E0F9
:10304000A4EB02063344194413468142F1D370BD08
:103050008400022010B50168044691F9080010F1BF
:10306000090F19DBFA2020714868B0B1097801F026
:10307000F00110290CD0202905D040290DD1A168DC
:1030800006F032FB08E0A289A1680AF075FE03E0B1
:10309000A289A16807F056F920712068BDE81040A8
:1030A0000C3006F023BF000010B5044600684178DC
:1030B00000290DD002290BD00078102806D01CA3BF
:1030C00040F2B15224A12CA0FDF786F9FB2014E0B8
:1030D000426812B10278102A01D0FA200DE0227A5B
:1030E000032A01D0022907D0D10701D004F080F8CB
:1030F0002068816A51B907E0F32020712068BDE89B
:1031000010400C3006F0F2BE406A30B108A340F225
:10311000BC5224A118A0FDF75FF921680420487073
:10312000206884622068BDE8104000F049B80000C3
:103130002E2E5C4C5749505C6C7769702D312E34C3
:103140002E315C7372635C6170695C6170695F6D84
:1031500073672E63000000006D73672D3E636F6E12
:103160006E2D3E74797065203D3D204E4554434F91
:103170004E4E5F5443500000417373657274696F23
:103180006E2022257322206661696C65642061745B
:10319000206C696E6520256420696E2025730D0AF8
:1031A00000000000616C7265616479207772697457
:1031B000696E67206F7220636C6F73696E670000C1
:1031C0002DE9F041040006D153A34FF43C725CA1F9
:1031D0005FA0FDF701F92078102806D04EA340F239
:1031E000F12266A15AA0FDF7F7F86078042806D00E
:1031F00049A340F2F22269A155A0FDF7EDF86068FD
:1032000030B945A340F2F3226DA151A0FDF7E4F8D7
:10321000A06A30B940A34FF43D726EA14CA0FDF7F7
:10322000DBF8A06A007A032800F0010700F002062C
:1032300024D000251DB16068002107F081F8606886
:10324000017E01291CD037B1002109F095FA606890
:10325000002106F0F4FF1EB16068002109F0BEFCF9
:103260009DB160680422002108F0AAFC606800217A
:1032700007F00AFD606807F0F5F90BE00125D9E7D2
:10328000002106F0DCFF002DF4D16068324639469B
:1032900009F0F0FC20B16068007E012821D027E011
:1032A000A16A00200871A062607035B16060E36AB5
:1032B0001BB100222046042198472FB1E36A1BB1BD
:1032C00000222046114698472EB1E36A1BB1002226
:1032D00020460221984704F10C00BDE8F04106F0B9
:1032E00005BE0DA340F22D3241A119A0FDF774F8DF
:1032F0004849606809F072FC47490422606808F098
:103300005FFC4649606807F0BFFC60682146BDE885
:10331000F04107F015B800002E2E5C4C5749505C68
:103320006C7769702D312E342E315C7372635C6161
:1033300070695C6170695F6D73672E6300000000E7
:10334000696E76616C696420636F6E6E00000000C8
:10335000417373657274696F6E2022257322206633
:1033600061696C6564206174206C696E65202564F8
:1033700020696E2025730D0A0000000074686973CF
:1033800020697320666F7220746370206E657463A9
:103390006F6E6E73206F6E6C79000000636F6E6EDF
:1033A000206D75737420626520696E20737461747A
:1033B00065204E4554434F4E4E5F434C4F5345009E
:1033C00070636220616C726561647920636C6F73F5
:1033D00065640000636F6E6E2D3E63757272656E7C
:1033E000745F6D736720213D204E554C4C000000EA
:1033F000436C6F73696E672061206C697374656ECE
:1034000020706362206D6179206E6F74206661693F
:103410006C210000F99A0008E58C0008AD3D000819
:1034200010B5044600684368002B11D0017801F004
:10343000F001102919D0202911D040290AD022A347
:1034400040F203422AA130A0FCF7C6FFFA202CE08C
:10345000F4202AE0A168184606F04BF925E0A2897D
:103460001846A1680AF018FD1FE0417809B1F7205D
:103470001BE006F0A7FB2068A289A1682D4B4068DD
:1034800007F0CCF9207188B92068032290F8201049
:1034900042702068C1F34001002990F820100BD041
:1034A00041F0040180F82010FB2020712068BDE865
:1034B00010400C3006F01ABD21F0040180F82010F5
:1034C0002068846210BD00002E2E5C4C5749505C71
:1034D0006C7769702D312E342E315C7372635C61B0
:1034E00070695C6170695F6D73672E630000000036
:1034F000496E76616C6964206E6574636F6E6E20D0
:103500007479706500000000417373657274696FAF
:103510006E2022257322206661696C6564206174C7
:10352000206C696E6520256420696E2025730D0A64
:10353000000000003935000870B5040015460CD0B5
:103540006078032806D023A340F2B6322BA133A023
:10355000FCF742FFA06A18B10FE06FF0050070BDE4
:1035600094F82000400709D41AA340F2B73236A1DC
:103570002AA0FCF731FFA06A00B10571207810285D
:1035800003D115B9204606F01DFB94F82000002653
:1035900040F3800520F0040084F82000A6626D1C32
:1035A000667009D1FDF74CFB94F9081011F1090F71
:1035B00000DB2672FDF75CFBE36A1BB100222046AC
:1035C000022198471DB104F10C0006F08FFC002089
:1035D00070BD00002E2E5C4C5749505C6C776970B2
:1035E0002D312E342E315C7372635C6170695C61C5
:1035F00070695F6D73672E6300000000636F6E6E0D
:103600002D3E7374617465203D3D204E4554434FFB
:103610004E4E5F434F4E4E45435400004173736519
:103620007274696F6E2022257322206661696C6551
:1036300064206174206C696E6520256420696E20A9
:1036400025730D0A0000000028636F6E6E2D3E6327
:10365000757272656E745F6D736720213D204E55E3
:103660004C4C29207C7C20636F6E6E2D3E696E5F12
:103670006E6F6E5F626C6F636B696E675F636F6EB8
:103680006E6563740000000070B5016804464878F8
:1036900000281BD0022819D003280CD00878102845
:1036A00006D030A340F2473238A140A0FCF794FE88
:1036B000FB20207131E091F82000400706D429A3B7
:1036C00040F24A3244A139A0FCF786FE206803F09C
:1036D0008FFD20684268A2B1017801F0F001102945
:1036E00027D00025202905D0402908D1104606F012
:1036F00059F804E0D561206840680AF0EBFC2068C6
:1037000045602068C36A43B100221146984720688B
:10371000C36A13B100220221984720680C3006F0DA
:10372000F0FB00281CD02068BDE870400C3006F08B
:10373000DDBB816A09B9406A30B10AA340F25F3249
:103740002DA11AA0FCF748FE216804204870032030
:103750002072206884622068BDE87040FFF730BDA9
:1037600070BD00002E2E5C4C5749505C6C77697020
:103770002D312E342E315C7372635C6170695C6133
:1037800070695F6D73672E63000000006D73672DB5
:103790003E636F6E6E2D3E74797065203D3D204E08
:1037A0004554434F4E4E5F54435000004173736580
:1037B0007274696F6E2022257322206661696C65C0
:1037C00064206174206C696E6520256420696E2018
:1037D00025730D0A00000000626C6F636B696E67F1
:1037E00020636F6E6E65637420696E2070726F6700
:1037F0007265737300000000616C7265616479200A
:1038000077726974696E67206F7220636C6F736979
:103810006E67000010B5044600686FF00C02406847
:10382000002825D0217C0029A16801D0006800E093
:1038300040680860002020712068017801F0F001E4
:10384000102921D0202915D040290CD013A340F2F3
:103850009B521CA121A0FCF7BFFD2068BDE81040D1
:103860000C3006F043BB217C11B14068007C11E0B4
:103870002271F2E7217C406809B1408A0AE0017CAC
:103880004907F5D5808A05E0217C406809B1408B65
:1038900000E0808BE1680880DFE700002E2E5C4CA2
:1038A0005749505C6C7769702D312E342E315C7322
:1038B00072635C6170695C6170695F6D73672E63D0
:1038C00000000000696E76616C6964206E65746347
:1038D0006F6E6E5F747970650000000041737365F0
:1038E0007274696F6E2022257322206661696C658F
:1038F00064206174206C696E6520256420696E20E7
:1039000025730D0A0000000070B50446006890F9A8
:10391000081011F1090F01DA217144E0F32121713E
:1039200042681AB30178102901D0F2201DE04078D6
:10393000E0B9FF21104607F039FD050014D02068DA
:10394000103006F0B7FA38B12068103006F004FAEB
:103950002068103006F07AFA0026267120681430AC
:1039600006F0A8FA18B108E0FF2020711BE02068DB
:103970001421143006F0F8F92071207928B1284676
:1039800006F070FE206846600DE021680220487055
:10399000206845602846216806F0D2FC2068054969
:1039A000406806F04CFC2068BDE870400C3006F022
:1039B0009DBA0000F52E000810B5044600202071C5
:1039C0002068406810B9204605F052F82068BDE82C
:1039D00010400C3006F08ABA2DE9F041054600206F
:1039E00028712868416899B10078102810D1AC6816
:1039F0004FF480384FF6FF77444501D33E4600E050
:103A0000A6B228683146406808F014FFA41BF3D121
:103A10002868BDE8F0410C3006F068BA10B50446DD
:103A2000006890F9081011F1090F07DB01781029DF
:103A300001D0FA2102E0417831B1FB212171BDE8CA
:103A400010400C3006F052BA4168002920D0012104
:103A500041702068816A09B9406A30B10DA340F213
:103A60004C5216A11CA0FCF7B7FCE06830B909A3C2
:103A700040F24E5223A118A0FCF7AEFC20688462ED
:103A80000020216848622068BDE8104000F044B87A
:103A9000F321D3E72E2E5C4C5749505C6C7769704C
:103AA0002D312E342E315C7372635C6170695C6100
:103AB00070695F6D73672E6300000000616C726552
:103AC0006164792077726974696E67206F72206310
:103AD0006C6F73696E670000417373657274696F10
:103AE0006E2022257322206661696C6564206174F2
:103AF000206C696E6520256420696E2025730D0A8F
:103B0000000000006D73672D3E6D73672E772E6C7D
:103B1000656E20213D2030002DE9F047044690F8E5
:103B200020004FF00008A16A80070E7C01D47007C6
:103B300001D5012700E0002734B959A340F2C34260
:103B400061A165A0FCF748FC6078012806D054A369
:103B500040F2C4426BA160A0FCF73EFCA06A30B901
:103B60004FA340F2C5426FA15BA0FCF735FC606833
:103B700030B94BA340F2C64271A157A0FCF72CFC10
:103B8000D4E90901C968884206D345A340F2C74277
:103B900071A151A0FCF720FCA16A606A8A6802EB5F
:103BA000000ACA68111AB1F5803F04D346F0020634
:103BB0004FF6FF7500E08DB261684FF00009B1F873
:103BC0006610A94207D20D461FB125B96FF006064F
:103BD00016E046F002062844904206D930A340F28F
:103BE000F5426AA13CA0FCF7F7FB606833462A4621
:103BF000514609F07DFB060001D0701C3BD187B116
:103C0000A06AC068A8420CD9E36A1BB103212A4606
:103C10002046984794F8200040F0100084F82000D7
:103C200010E0606840F66932B0F86610914203D93E
:103C3000B0F86800052805D3E36A1BB103212A46C2
:103C40002046984716B1701C14D014E0606A2844CE
:103C50006062A16ACA68904200D027B1C8604FF084
:103C60000108C4F82490606807F060FCB8F1000F08
:103C700004D10DE07FB1A16AC1F80C90A06A067171
:103C800004F10C00C4F8289084F8019006F02EF995
:103C90000020BDE8F087606807F048FCF8E7000006
:103CA0002E2E5C4C5749505C6C7769702D312E3448
:103CB0002E315C7372635C6170695C6170695F6D09
:103CC00073672E6300000000636F6E6E20213D203D
:103CD0004E554C4C00000000417373657274696F5F
:103CE0006E2022257322206661696C6564206174F0
:103CF000206C696E6520256420696E2025730D0A8D
:103D000000000000636F6E6E2D3E73746174652059
:103D10003D3D204E4554434F4E4E5F57524954450A
:103D200000000000636F6E6E2D3E63757272656EEB
:103D3000745F6D736720213D204E554C4C00000090
:103D4000636F6E6E2D3E7063622E74637020213D32
:103D5000204E554C4C000000636F6E6E2D3E777206
:103D60006974655F6F6666736574203C20636F6E6F
:103D70006E2D3E63757272656E745F6D73672D3E56
:103D80006D73672E772E6C656E000000646F5F7731
:103D9000726974656D6F72653A20696E76616C69DF
:103DA00064206C656E677468210000002DE9F041A5
:103DB00004000E4606D133A34FF4B1723BA13FA0DD
:103DC000FCF70AFB00276760FCF73AFF2672FCF756
:103DD0004FFF65786770E36A7BB1002220460421BB
:103DE0009847E36A4BB10022204611469847E36AA0
:103DF0001BB1002220460221984704F110008046A2
:103E000006F058F818B10021404606F023F804F1F6
:103E10001400804606F04EF818B10021404606F026
:103E200019F8012D0FD0042D0DD0032D0BD0A06A51
:103E3000002824D0BDE8F04112A34FF4C9722AA192
:103E40001EA0FCF7C9BA94F82000C0F38001002935
:103E500020F0040084F8200011D1A06A30B909A331
:103E600040F28B1227A115A0FCF7B6FAA06A0671E2
:103E700004F10C00A762BDE8F04106F037B8BDE8D8
:103E8000F08100002E2E5C4C5749505C6C776970B5
:103E90002D312E342E315C7372635C6170695C610C
:103EA00070695F6D73672E6300000000636F6E6E54
:103EB00020213D204E554C4C00000000417373659D
:103EC0007274696F6E2022257322206661696C65A9
:103ED00064206174206C696E6520256420696E2001
:103EE00025730D0A00000000636F6E6E2D3E637532
:103EF0007272656E745F6D7367203D3D204E554C48
:103F00004C000000636F6E6E2D3E63757272656EBD
:103F1000745F6D736720213D204E554C4C000000AE
:103F20002DE9F84F05009046894610D0B8F80A00F0
:103F30002A2866D3D8F804604FF4807A344634F8DF
:103F40000E0F50455DD1207906285AD108E02FA3E5
:103F500040F2BB2237A13BA0FCF73EFABDE8F88F48
:103F6000607904284DD1608808284AD1D4F80E0021
:103F70000090281DA16905D0686818B1814201D15F
:103F8000012700E000270FB1012300E0022369466A
:103F900004F10802284600F013FDE088504530D1B6
:103FA000002F2ED0022002F09BF9E080D4F80E0002
:103FB000A0616868C4F80E0095F82200062806D0B3
:103FC0002B4912A31FA040F21132FCF705FAA0689A
:103FD000C4F81200A089E082A0683060A089B08097
:103FE000D9F80010A160B9F80400A081D9F8001038
:103FF000C6F806104146B9F8040070812846AA693F
:104000009047404604F020FBA8E700002E2E5C4CB1
:104010005749505C6C7769702D312E342E315C73AA
:1040200072635C6E657469665C6574686172702E3B
:10403000630000006E6574696620213D204E554C7A
:104040004C000000417373657274696F6E20222505
:104050007322206661696C6564206174206C696EEE
:104060006520256420696E2025730D0A000000007C
:10407000D8F300082DE9F34F85B080460A200024CC
:104080000746A346A246A14602900190009004EB89
:1040900084004B490A2F039001EB8006B57C18D0B1
:1040A000002D24D0012D08D0022D06D245A340F2C8
:1040B0002B124EA15DA0FCF78FF9B8F1000F0CD0C8
:1040C000D8F800007168884207D160B207B0BDE837
:1040D000F08F002DE6D167B209E0012D15D0022D39
:1040E00005D3F07C504502D3824661B20191641C35
:1040F000E4B20A2CCBD3069881074FF0FF30E5D409
:104100000A2F15D017DAFCB23AE02D48039950F87F
:1041100021000028F07C05D04845E8D3814661B2F3
:104120000091E4E75845E2D3834661B20291DEE7AD
:104130000699C907CAD001990A290EDACCB22048DB
:1041400004EB840150F8210070B11EA340F27112FB
:1041500041A136A0FCF740F906E002990A2902DBEA
:1041600000990A29B2DACCB20A2C06D315A340F280
:1041700083123FA12DA0FCF72FF9204600F098F8FC
:104180000A2C06D30FA340F2871239A127A0FCF70F
:1041900023F90B4804EB840100EB8105A87C30B1C6
:1041A00008A34FF4C47237A120A0FCF715F9B8F1A9
:1041B000000F02D0D8F8000068600020E87484E79F
:1041C000847605202E2E5C4C5749505C6C776970C4
:1041D0002D312E342E315C7372635C6E65746966AA
:1041E0005C6574686172702E6300000073746174A2
:1041F00065203D3D204554484152505F5354415441
:10420000455F50454E44494E47207C7C2073746185
:104210007465203E3D204554484152505F535441FF
:1042200054455F535441424C45000000417373654F
:104230007274696F6E2022257322206661696C6535
:1042400064206174206C696E6520256420696E208D
:1042500025730D0A000000006172705F7461626C6A
:10426000655B695D2E71203D3D204E554C4C000034
:1042700069203C204152505F5441424C455F5349B4
:104280005A4500006172705F7461626C655B695DC4
:104290002E7374617465203D3D2045544841525051
:1042A0005F53544154455F454D5054590000000040
:1042B00070B50C4E00EB8004002556F8240018B1B0
:1042C00004F0C2F946F8245006EB840006498574D0
:1042D000C57485604560D1F80620C26049890182B5
:1042E00070BD0000847605203CF300082DE9FC41F8
:1042F000040015460E4606D145A340F275324EA184
:1043000051A0FCF769F836B941A340F2763259A1C1
:104310004DA0FCF761F835B93DA340F2773258A1C2
:1043200049A0FCF759F80E21304604F043FA18B1C1
:104330006FF00100BDE8FC812868214600F0AEFE68
:1043400008B1534B3CE02868C0F303110E2922D07A
:10435000A168636800EA01020B409A420BD080B268
:10436000A0F57E41A93906D014F10C0F2FD0E068DA
:1043700068B304F10C05474B474A187800EB8001FD
:1043800002EB81018F7C022F24D32F6849688F4272
:1043900020D102462CE001208DF8000000208DF88D
:1043A00001005E208DF8020068786B4600F07F0007
:1043B0008DF80300A8788DF80400E8788DF80500E2
:1043C00004F123023146204600F086FAB2E76FF08E
:1043D0000300AFE7002000EB800102EB81018F7C3E
:1043E000022F0AD32F6849688F4206D1C2B21A70D1
:1043F0003146204600F052F89CE7401C40B20A28A3
:10440000E9DB32462946204600F0B6F892E7000084
:104410002E2E5C4C5749505C6C7769702D312E34D0
:104420002E315C7372635C6E657469665C6574687A
:104430006172702E630000006E6574696620213D14
:10444000204E554C4C000000417373657274696FC7
:104450006E2022257322206661696C656420617478
:10446000206C696E6520256420696E2025730D0A15
:10447000000000007120213D204E554C4C000000F2
:1044800069706164647220213D204E554C4C0000DF
:104490003CF300080C0102208476052070B50E461E
:1044A0000546134802EB820100EB8104A07C022840
:1044B00006D210A34FF4537218A124A0FBF78CFF6F
:1044C000A07C022809D1E07CE42806D3211D2846DF
:1044D00000F0F0F908B90320A07404F10C03314690
:1044E00005F123022846BDE8704000F0F5B9000050
:1044F000847605202E2E5C4C5749505C6C77697091
:104500002D312E342E315C7372635C6E6574696676
:104510005C6574686172702E630000006172705F88
:104520007461626C655B6172705F6964785D2E7343
:1045300074617465203E3D204554484152505F539C
:10454000544154455F535441424C45004173736597
:104550007274696F6E2022257322206661696C6512
:1045600064206174206C696E6520256420696E206A
:1045700025730D0A000000002DE9F74F82B04FF0BF
:10458000FF3B164688465F46029823300090086835
:10459000029900F083FD002829D1D8F80000C0F36B
:1045A00003110E2923D0B8F1000F20D000281ED00F
:1045B00001214046FFF75EFD04001AD4DFF8DCA0BD
:1045C00004EB84090AEB8905A87C002814D0012893
:1045D00014D0022809D232A340F219423AA144A0D1
:1045E000FBF7FAFEA87C012808D03EB10DE06FF081
:1045F0000D0005B0BDE8F08F0120A8740298414677
:1046000000F058F9002E0746F3D0A87C02280AD300
:10461000424805F10C0331460470009A029800F0FC
:104620005BF9074638E00128D04635D100253446ED
:1046300040F23E4760892189884207D1206828B12D
:1046400017A33A4636A12AA0FBF7C6FE207B012815
:1046500003D12468002CEDD175B1218900220320FB
:1046600003F0C0FB050016D0314603F073FE40B1E5
:10467000284603F0E9FF0EE03546304604F0EAF93B
:104680004DB158F82900444608B103F0DDFF00277A
:1046900044F8295000E05F463846AAE784760520B2
:1046A0002E2E5C4C5749505C6C7769702D312E343E
:1046B0002E315C7372635C6E657469665C657468E8
:1046C0006172702E630000006172705F7461626CD1
:1046D000655B695D2E7374617465203D3D205045B6
:1046E0004E44494E47206F7220535441424C45007E
:1046F000417373657274696F6E2022257322206680
:1047000061696C6564206174206C696E6520256444
:1047100020696E2025730D0A000000000C010220A4
:104720006E6F207061636B6574207175657565735C
:1047300020616C6C6F776564210000002DE9F05FEB
:10474000DDF82CB00700984691468A4606D132A380
:1047500040F2A5423AA13EA0FBF73EFE00222A21EC
:10476000032003F03FFB060053D070892A2806D2AD
:1047700029A34FF4966241A135A0FBF72DFE756881
:104780000D9805F10E0401F0ABFDE08097F82200D2
:10479000062806D0464920A32DA04FF49762FBF7C8
:1047A0001BFED8F80010A160B8F80400A081DBF867
:1047B0000010C4F81210BBF80400E082D9F8001011
:1047C0002960B9F80400A880DAF80010C5F80610CE
:1047D0003146BAF8040068810A980068C4F80E00EF
:1047E0000C980068A0614FF48070208008206080E1
:1047F00006202071042060714FF4C160A881384602
:10480000BA6990470446304603F01EFF2046BDE8D3
:10481000F09F4FF0FF30FAE72E2E5C4C5749505C6A
:104820006C7769702D312E342E315C7372635C6E3F
:10483000657469665C6574686172702E630000005F
:104840006E6574696620213D204E554C4C00000079
:10485000417373657274696F6E202225732220661E
:1048600061696C6564206174206C696E65202564E3
:1048700020696E2025730D0A0000000063686563DF
:104880006B2074686174206669727374207062753D
:10489000662063616E20686F6C6420737472756348
:1048A00074206574686172705F6864720000000053
:1048B000D8F300081FB5074C0123021DCDE90213F0
:1048C000CDE9002400F12303A21F1946FFF736FFAC
:1048D00004B010BD42F300082DE9F041054690F800
:1048E00022004C681E4606281746884606D0164900
:1048F0000BA316A040F2A312FBF76EFD30684146F1
:104900002060B088A0803868C4F80600B88860814C
:104910000820A0812846AA69BDE8F04110470000A0
:104920002E2E5C4C5749505C6C7769702D312E34BB
:104930002E315C7372635C6E657469665C65746865
:104940006172702E63000000D8F300084173736534
:104950007274696F6E2022257322206661696C650E
:1049600064206174206C696E6520256420696E2066
:1049700025730D0A0000000070B5104D002404EBF3
:10498000840005EB8000827C92B1C17C491CC9B2D5
:10499000C174F02906D2012A02D0032A06D007E00A
:1049A000022905D32046FFF783FC01E00221817430
:1049B000641CE4B20A2CE2D370BD000084760520AA
:1049C0002DE9F041044690F822001F4615460628BE
:1049D0000E4606D01EA340F2C31227A130A0FBF75B
:1049E000FBFC86B3306870B3214600F057FB50BB28
:1049F0003078C0F303100E2826D039463046FFF732
:104A000039FB00281DDB314A00EB8001022302EB59
:104A10008100837484602B68C360AB8803820023A9
:104A2000C37452F821605EB142F8213004F12302D0
:104A30002B4631462046FFF74FFF304603F004FE79
:104A40000020BDE8F081FFE76FF00D00F9E70000FE
:104A50002E2E5C4C5749505C6C7769702D312E348A
:104A60002E315C7372635C6E657469665C65746834
:104A70006172702E630000006E657469662D3E6879
:104A800077616464725F6C656E203D3D20455448DB
:104A90004152505F4857414444525F4C454E0000DC
:104AA000417373657274696F6E20222573222066CC
:104AB00061696C6564206174206C696E6520256491
:104AC00020696E2025730D0A000000008476052001
:104AD00070B5044640890D460E2842D960680178B9
:104AE0008689CA0714D0012905D020490622FBF780
:104AF00019FD48B10CE0417851B980785E2807D1A2
:104B0000607B40F0100002E0607B40F008006073C2
:104B1000082E03D0B6F5C16F23D116E095F8290011
:104B200080061ED56FF00D01204603F043FE38B11C
:104B30000FA340F24F5218A120A0FBF74DFC10E04C
:104B40002946204600F000FC09E095F8290080067F
:104B500007D505F1230122462846FFF7E1F9002099
:104B600070BD204603F070FDF9E700003CF300083B
:104B70002E2E5C4C5749505C6C7769702D312E3469
:104B80002E315C7372635C6E657469665C65746813
:104B90006172702E6300000043616E2774206D6F98
:104BA0007665206F7665722068656164657220693C
:104BB0006E207061636B6574000000004173736563
:104BC0007274696F6E2022257322206661696C659C
:104BD00064206174206C696E6520256420696E20F4
:104BE00025730D0A0000000010B5040005D1C02295
:104BF00009A314A116A0FBF7EFFB652084F82A0097
:104C00006E2084F82B001D4860611D48A06120467D
:104C100001F030F9002010BD2E2E5C4C5749505C3D
:104C20006C7769702D312E342E315C7372635C6E3B
:104C3000657469665C65746865726E657469662E14
:104C4000630000006E65746966213D4E554C4C0052
:104C5000417373657274696F6E202225732220661A
:104C600061696C6564206174206C696E65202564DF
:104C700020696E2025730D0A00000000ED42000837
:104C8000AD5F000870B5054601F032F9040009D0A7
:104C90002A6929469047050002D0204603F0D4FC3B
:104CA000284670BD4FF0FF3070BD00000349CA694F
:104CB0005206FCD5C2B28A62704700000010014063
:104CC0000A46032100F040B92DE9FE4F456804462D
:104CD0008A4628780007870E20467942884603F0E6
:104CE00069FD00287AD12089042877D3606800788C
:104CF00000287FD008287DD1414901260868C0F3EB
:104D000003120E2A00D100268946514600F0C6F94A
:104D100000286FD1002E6DD0208908286AD3204644
:104D200000F098F9002865D12221204603F042FDC9
:104D3000002831D03946204603F03CFD18B19822B6
:104D400030A33AA147E021890022022003F04AF86B
:104D500006004FD0718907F10800814205D2A122D7
:104D600028A33FA14CA0FBF737FB2146304603F0B8
:104D7000F1FA18B1A52223A352A12CE0756841468F
:104D8000304603F017FD10B1AB221EA30CE0204605
:104D900003F05AFC344609E06FF02101204603F08D
:104DA00009FD18B1B52217A350A114E060680026D0
:104DB000D9F80010E9605A49096829613946067036
:104DC0004680FF20287220466E8103F0F3FC30B14C
:104DD000DA220CA353A130A0FBF7FEFA0AE001216E
:104DE0002046FF23CDF808A00022CDE90061044948
:104DF00000F0A6FB2046BDE8FE4F03F025BC0000F6
:104E0000200102202E2E5C4C5749505C6C77697053
:104E10002D312E342E315C7372635C636F72655C6E
:104E2000697076345C69636D702E630069636D70C0
:104E30005F696E7075743A206D6F76696E67207069
:104E40002D3E7061796C6F616420746F20697020F1
:104E5000686561646572206661696C65640A00005A
:104E6000636865636B20746861742066697273742B
:104E700020706275662063616E20686F6C642073B9
:104E80007472756374207468652049434D502068BE
:104E90006561646572000000417373657274696FC7
:104EA0006E2022257322206661696C65642061741E
:104EB000206C696E6520256420696E2025730D0ABB
:104EC0000000000069636D705F696E7075743A2050
:104ED000636F7079696E6720746F206E65772070DC
:104EE000627566206661696C65640A0069636D704D
:104EF0005F696E7075743A20726573746F72696E53
:104F000067206F726967696E616C20702D3E7061F9
:104F1000796C6F6164206661696C65640A000000E9
:104F20001C01022043616E2774206D6F7665206F2F
:104F30007665722068656164657220696E207061B3
:104F4000636B6574000000002DE9FE4391460E4638
:104F5000002207462421012002F044FF05002DD045
:104F60006889242806D216A34FF499721EA129A09D
:104F7000FBF732FA6C681C22D7F8048026700026F2
:104F800084F80190A680E680686879680830FBF7AD
:104F9000F5FA66802046698900F056F86080FF23A4
:104FA000D8F80C0000210290012002AACDE900608F
:104FB000284600F071FA284603F046FBBDE8FE8360
:104FC0002E2E5C4C5749505C6C7769702D312E3415
:104FD0002E315C7372635C636F72655C69707634EA
:104FE0005C69636D702E6300636865636B20746831
:104FF00061742066697273742070627566206361E3
:105000006E20686F6C642069636D70206D657373CA
:1050100061676500417373657274696F6E20222544
:105020007322206661696C6564206174206C696E0E
:105030006520256420696E2025730D0A000000009C
:105040000A460B21FFF780BF10B501F06AF9C04393
:1050500080B210BD70B500240546264613E069896C
:10506000686801F05EF92044010C11FA80F4A87A16
:10507000C00707D0C6F10100C6B2E0B2C4F30721F1
:1050800041EA00242D68002DE9D126B1E0B2C4F335
:10509000072141EA0024E04380B270BD421C12D0D7
:1050A00088B191F8292092070BD54A68824208D02E
:1050B00089680A4000EA0103934202D10143491C76
:1050C00001D0002070470120704700002DE9F74F04
:1050D0008AB00446142500260B98078C6068069059
:1050E000C08801F014F9C0F30C01039100F40050E2
:1050F000089020891438143F07971FFA80F9F81791
:1051000007EB5070C0F3CF0004908EE007998945FB
:1051100001DC012000E000200399089AC1F30C0192
:1051200011430591002825D048461FFA80FB002234
:105130001421022002F056FE0028029020D060893F
:10514000142806D240A340F2FB224AA151A0FBF74B
:1051500043F90298142206994068FBF70FFA029867
:10516000D0F804A06068284460606089401B5D46F8
:10517000608131E041F4005005900498C000D4E70C
:105180004FF0FF300DB0BDE8F08F6689AE4200D918
:105190002E4606B3062001F07BFC07004BD060686A
:1051A0000222CDE9000603203B46314602F0C8FF4B
:1051B0005FEA000843D0204603F04CFC40484146DB
:1051C000C7E90404029803F027F8A81B05042D0C76
:1051D00004D02468D9E72468002DD6D10598354637
:1051E00001F07EF8AAF806000BF1140080B201F07D
:1051F00077F8AAF8020000215046AAF80A101421F4
:10520000FFF722FFAAF80A000B980C9A029943694B
:105210009847029803F018FAA9EB0B001FFA80F9DF
:10522000DDE90301084480B20390B9F1000F7FF477
:105230006DAF0020A6E7029803F006FAA0E7384613
:1052400000F040F8F7E700002E2E5C4C5749505C08
:105250006C7769702D312E342E315C7372635C6310
:105260006F72655C697076345C69705F66726167E5
:105270002E63000074686973206E65656473206135
:10528000207062756620696E206F6E65207069659A
:1052900063652100417373657274696F6E20222506
:1052A0007322206661696C6564206174206C696E8C
:1052B0006520256420696E2025730D0A000000001A
:1052C000E95D000810B5040006D106A340F279227A
:1052D0000FA112A0FBF780F82146BDE81040062080
:1052E00001F050BB2E2E5C4C5749505C6C776970B6
:1052F0002D312E342E315C7372635C636F72655C8A
:10530000697076345C69705F667261672E63000055
:105310007020213D204E554C4C00000041737365B8
:105320007274696F6E2022257322206661696C6534
:1053300064206174206C696E6520256420696E208C
:1053400025730D0A000000002DE9F05F4568064650
:10535000884604212878B1EB101F0FD100F00F0010
:105360004FF6FF7101EA8004688800F0D0FF014623
:105370007089A04202D33089884203D2304603F0BC
:1053800063F94EE0304603F0A1FA4148012729694C
:105390004446A0F1040ADFF8FCB081460160EA68E7
:1053A000CAF8002094F82900C0070BD0201D09D0AE
:1053B000616839B1D9F8000088420ED02146FFF764
:1053C0006DFE50B91FB1DBF80040002700E02468F3
:1053D000444500D12468002CE4D1DAF80000574697
:1053E0004146FFF75BFE0028C8D13878BA46C0F3C3
:1053F00003100E28C2D0002CC0D0E88830F0C000C6
:1054000005D0304600F04EF906000AD075684146D6
:105410001F4C3046103CC4E9018504F06FF918B107
:105420002DE00020BDE8F09F687A012815D00628FD
:105430000ED0112807D0D9F800004F464146FFF79B
:105440002DFE78B118E04146304608F04DFD16E0DB
:105450004146304605F094FC11E041463046FFF7E6
:1054600033FC0CE03878C0F303100E2804D002217E
:1054700030467560FFF724FC304603F0E5F8002065
:105480006060A060CAF80000C9F80000C9E7000029
:1054900020010220480102202DE9FE43DDE90A65D2
:1054A0000446C089984617460128894606D00CA3B1
:1054B00040F2393214A117A0FAF78EFF384600F0F7
:1054C00073FC50B100964346CDE901503A46494637
:1054D000204600F035F8BDE8FE836FF00300FAE7E0
:1054E0002E2E5C4C5749505C6C7769702D312E34F0
:1054F0002E315C7372635C636F72655C69707634C5
:105500005C69702E63000000702D3E726566203D60
:105510003D203100417373657274696F6E202225DE
:105520007322206661696C6564206174206C696E09
:105530006520256420696E2025730D0A0000000097
:105540002DE9F84FDDE90BA60546C089DDF828B046
:10555000984601281746894606D02DA34FF4277296
:1055600035A138A0FAF738FF002F3CD01421284687
:1055700003F020F918B16FF00100BDE8F88F6889D9
:105580006C68142806D222A340F2C92238A12DA0AB
:10559000FAF722FF84F8088084F809A038682061AF
:1055A0004520207084F801B0288900F099FEDFF8CA
:1055B000F0804FF0000A6080A4F806A0B8F8000060
:1055C00000F08EFEA080B8F80000401CA8F8000093
:1055D000B9F1000F02D0D9F8000000B97068E0609E
:1055E000A4F80AA003E068686F4600690090308C58
:1055F00040B12989814205D93A4631462846FFF70C
:1056000065FDBAE773693A46294630469847B4E7DC
:105610002E2E5C4C5749505C6C7769702D312E34BE
:105620002E315C7372635C636F72655C6970763493
:105630005C69702E63000000702D3E726566203D2F
:105640003D203100417373657274696F6E202225AD
:105650007322206661696C6564206174206C696ED8
:105660006520256420696E2025730D0A0000000066
:10567000636865636B207468617420666972737413
:1056800020706275662063616E20686F6C642073A1
:1056900074727563742069705F6864720000000042
:1056A000100102202DE9F14F00270098446820786E
:1056B00000F00F0005287CD1E08800F028FEC0042F
:1056C0004FEA104A608800F022FE217801F00F01B5
:1056D000494200EB81001FFA80F9009802F030FE89
:1056E000584D0646288830440A2809D931462046B4
:1056F00000F0FCFA00285CD0288830440A2858D8EA
:10570000A8466D684FF0000B0DE06869E1688842BB
:1057100007D1A8692169884203D1A889A188884254
:1057200004D02F462D68002DEFD106E02DB1E08882
:1057300000F0EDFDC00424D02EE0052001F0A8F912
:1057400005000AD13146204600F0D0FAB04216DBFF
:10575000052001F09DF9050011D02021FAF77DFF09
:105760000320E877D8F804101422296005F1080016
:105770002146C8F80450FAF701FFD5B10CE05D46A8
:10578000FBE7E88900F0C3FDC00405D014222146E0
:1057900005F10800FAF7F2FEB8F800103144A8F855
:1057A0000010A079800608D4A87F40F00100A877F7
:1057B00000E041E00AEB0900A8830099284600F0C8
:1057C00043F8002836D0A88B142205F108011430C4
:1057D000A8836868466830463468FAF7CFFEA88B1D
:1057E00000F07EFD70801421A6F806B03046A6F8C1
:1057F0000AB0FFF729FC70816FF0130AD5F8049006
:1058000009E066685146204602F0D4FF214648462A
:1058100002F002FD3468002CF3D13946284600F02E
:105820004DF9484602F08CFDB8F80020101AA8F88F
:1058300000004846BDE8F88F009802F005FF002000
:10584000F8E70000240102202DE9F0474C6800250C
:10585000012788460646608800F059FD217801F04E
:105860000F01494200EB8109E08800F050FDD8F8B3
:105870000440C004020C0020206002EB0900A2805A
:105880001FFA80FCA4F806C071681DE04868838890
:105890009A420ED2216045B1EB889A4275D3808836
:1058A000844572D8C5F8008001E0C6F8048069B16B
:1058B0002BE06AD0C1888A4267D31DB1E98899423A
:1058C00000D00027016805460029DFD195B1E8889E
:1058D000A188884206D933A340F293123CA144A088
:1058E000FAF77AFDC5F80080E888A18888420CD0D4
:1058F00000270AE0706830B12AA340F29B1247A14A
:105900003BA0FAF769FDC6F80480B07FC00739D024
:10591000002F36D072685068808838B920682146D8
:1059200030B14468C888A1888842F7D0002728E0B1
:10593000002F26D032B91BA34FF4DE7245A12CA054
:10594000FAF74AFD70684068A04206D115A340F2FC
:10595000BD1240A126A0FAF73FFD206830B111A387
:1059600040F2BF123FA122A0FAF736FDE088B18BCA
:10597000884206D00BA340F2C11243A11CA0FAF743
:105980002BFD3846BDE8F087FFE7404602F0D8FC23
:1059900049490A88101A0880404602F055FE002046
:1059A000F0E700002E2E5C4C5749505C6C77697014
:1059B0002D312E342E315C7372635C636F72655CC3
:1059C000697076345C69705F667261672E6300008F
:1059D000636865636B20667261676D656E747320C2
:1059E000646F6E2774206F7665726C6170000000C2
:1059F000417373657274696F6E202225732220666D
:105A000061696C6564206174206C696E6520256431
:105A100020696E2025730D0A000000006E6F207053
:105A2000726576696F757320667261676D656E74F5
:105A30002C2074686973206D7573742062652074FE
:105A4000686520666972737420667261676D656E41
:105A50007421000073616E69747920636865636BFB
:105A60000000000076616C69646174655F64617454
:105A7000616772616D3A6E6578745F7062756621F8
:105A80003D4E554C4C00000076616C696461746554
:105A90005F646174616772616D3A646174616772B9
:105AA000616D20656E64213D646174616772616D32
:105AB000206C656E000000002401022070B50446D1
:105AC0000B480D464168A14202D12168416009E0BE
:105AD00035B908A340F2391211A118A0FAF77CFCDD
